S01400006C61626F7261746F72696F362E737265633C
S11300000C9434000C9451000C9451000C94510045
S11300100C9451000C9451000C9451000C94510018
S11300200C9451000C9451000C9451000C94510008
S11300300C9451000C9451000C9451000C945100F8
S11300400C9451000C9451000C94E7000C94510052
S11300500C9451000C9469000C9451000C945100C0
S11300600C9451000C94510011241FBECFEFD8E022
S1130070DEBFCDBF11E0A0E0B1E0EAE9F2E002C0EA
S113008005900D92A635B107D9F721E0A6E5B1E0B8
S113009001C01D92AC35B207E1F70E94BB000C947D
S11300A04B010C940000ACE7B0E01C92EAE7F0E0EE
S11300B010828C9180648C938C9186628C931082D4
S11300C080818868808380818760808310927B0030
S11300D008951F920F920FB60F9211248F93EF93EE
S11300E0FF938091790080935A01EAE7F0E08081E0
S11300F080618083FF91EF918F910F900FBE0F90DD
S11301001F9018958AB18E7F8AB98AB182608AB9A4
S1130110E0ECF0E01082808182608083E1ECF0E02A
S11301201082808188698083E2ECF0E01082808113
S1130130866080838FEC90E09093C5008093C40028
S11301400895AC0120E009C09091C00095FFFCCF58
S11301503093C600109200012F5FFA01E20FF11DE7
S113016030813111F1CF08959091C00095FFFCCFFB
S11301708093C6000895F8940E9482000E94530060
S1130180789488E40E94B4008FE40E94B4008CE464
S11301900E94B40081E40E94B4008AE00E94B4008A
S11301A0EAE7F0E08081806480832FEF81EE94E0C1
S11301B0215080409040E1F700C000008091000190
S11301C0813071F781E091E00E94A100E9CF1F9294
S11301D00F920FB60F9211242F933F934F935F9377
S11301E06F937F938F939F93AF93BF93EF93FF93FB
S11301F08091C60080935B018091C00085FFFCCF95
S113020080915B0180935901813359F480915A01A3
S11302100E94B4008AE00E94B40081E0809300014F
S113022029C0823341F482E391E00E94A10081E07D
S1130230809356011FC0809156018130A1F49091A2
S11302405B019093580180915B0182958F7080933C
S1130250570195B98091570188B981E080930001D5
S11302601092560107C086E491E00E94A10081E04B
S113027080930001FF91EF91BF91AF919F918F9176
S11302807F916F915F914F913F912F910F900FBE8E
S10D02900F901F901895F894FFCF0B
S113029A014D656EFA3A0A20312E204C65657220AA
S11302AA706F74656E63696F6D6574726F200A206E
S11302BA322E20456E766961722041736369692022
S11302CA0A00496E677265736520756E20636172F0
S11302DA6163746572004F7063696F6E20696E762C
S10902EA616C696461000F
S9030000FC
