:100000000C9434000C9451000C9451000C94510049
:100010000C9451000C9451000C9451000C9451001C
:100020000C9451000C9451000C9451000C9451000C
:100030000C9451000C9451000C9451000C945100FC
:100040000C9451000C9451000C94A1000C9451009C
:100050000C9451000C9451000C9451000C945100DC
:100060000C9451000C94510011241FBECFEFD8E026
:10007000DEBFCDBF11E0A0E0B1E0E2E9F1E002C0F7
:1000800005900D92A630B107D9F721E0A6E0B1E0C6
:1000900001C01D92AA30B207E1F70E948A000C94B9
:1000A000C7000C9400008AB18E7F8AB98AB1826041
:1000B0008AB9E0ECF0E01082808182608083E1EC1C
:1000C000F0E01082808183698083E2ECF0E01082AE
:1000D0008081866080838FEC90E09093C500809350
:1000E000C4000895AC0120E007C09091C00095FFC6
:1000F000FCCF3093C6002F5FFA01E20FF11D308173
:100100003111F3CF08959091C00095FFFCCF8093FB
:10011000C60008950E94530088E40E9483008FE483
:100120000E9483008CE40E94830081E40E9483008B
:100130008AE00E94830080E091E00E94720078943F
:10014000FFCF1F920F920FB60F9211248F939F93A0
:100150008091C600809309018091C00085FFFCCF8B
:100160008091090180930801909109019093070102
:1001700082958F708093060195B98091060188B9A8
:100180009F918F910F900FBE0F901F901895F8942C
:02019000FFCF9F
:06019200486F6C610A00D9
:00000001FF
