S01400006C61626F7261746F72696F362E737265633C
S11300000C9434000C9446000C9446000C94460066
S11300100C9446000C9446000C9446000C94460044
S11300200C9446000C9446000C9446000C94460034
S11300300C9446000C9446000C9446000C94460024
S11300400C9446000C9446000C9481000C944600D9
S11300500C9446000C9446000C9446000C94460004
S11300600C9446000C94460011241FBECFEFD8E038
S1130070DEBFCDBF21E0A0E0B1E001C01D92A230FF
S1130080B207E1F70E946E000C9499000C940000F2
S11300908AB18E7F8AB98AB182608AB9E0ECF0E0D5
S11300A01082808182608083E1ECF0E010828081A4
S11300B083698083E2ECF0E0108280818660808333
S11300C08FEC90E09093C5008093C40008959091C4
S11300D0C00095FFFCCF8093C60008950E9448009D
S11300E088E40E9467008FE40E9467008CE40E9409
S11300F0670081E40E9467008AE00E9467007894A8
S1130100FFCF1F920F920FB60F9211248F938091FD
S1130110C600809301018091C00085FFFCCF8091CF
S11301200101809300018F910F900FBE0F901F90DB
S10901301895F894FFCFBE
S9030000FC
